:020000040800F2
:100000000807002091020008FD140008F5140008FC
:10001000F914000889040008C51700080000000052
:100020000000000000000000000000001D16000895
:10003000F504000800000000011500082116000862
:10004000AB020008AB020008AB020008AB020008DC
:10005000AB020008AB020008AB020008AB020008CC
:10006000AB020008AB020008AB020008AB020008BC
:10007000AB020008AB020008AB020008AB020008AC
:10008000AB020008AB020008AB020008AB0200089C
:10009000AB020008AB020008AB020008AB0200088C
:1000A000AB020008AB020008AB020008AB0200087C
:1000B000AB020008AB020008AB020008AB0200086C
:1000C000AB020008AB020008AB020008AB0200085C
:1000D000AB020008AB020008AB020008AB0200084C
:1000E000AB020008AB020008AB020008AB0200083C
:1000F000AB020008AB020008AB020008AB0200082C
:10010000AB020008AB020008AB020008AB0200081B
:10011000AB020008AB020008AB020008AB0200080B
:10012000AB020008AB020008AB020008AB020008FB
:10013000AB0200080000000000000000AB02000855
:10014000AB020008AB020008AB020008AB020008DB
:10015000AB020008AB020008AB020008AB020008CB
:10016000AB020008AB020008AB020008AB020008BB
:10017000AB020008AB020008AB0200080000000060
:1001800000000000AB0200080000000000000000BA
:10019000AB0200080000000000000000AB020008F5
:1001A000000000000000000000000000AB0200089A
:1001B000AB020008AB020008AB020008AB0200086B
:1001C000AB02000800F002F800F052F814A696E81E
:1001D000000CB244B344DA4501D100F049F8BAE862
:1001E0000F000FA696E83000A5EB040504EB060708
:1001F000AAEB0704A7F101074FEA15154FEA3414DB
:10020000A4F10104AC4201D300F032F813F0010F65
:1002100018BFFB1A43F0010300F001F8DBE71847B1
:100220009C180000BC180000103A24BF78C878C1A0
:10023000FAD8520724BF30C830C144BF04680C60EC
:1002400070470000704700000023002400250026AE
:10025000103A28BF78C1FBD8520728BF30C148BF29
:100260000B6070471FB501F00FFC1FBD10B510BD2E
:1002700000F0D0F81146FFF7F5FF01F0B1FA00F0F9
:10028000EEF803B4FFF7F2FF03BC00F0F5F800004E
:100290000948804709480047FEE7FEE7FEE7FEE71A
:1002A000FEE7FEE7FEE7FEE7FEE7FEE70448054956
:1002B000054A064B70470000C9160008C501000832
:1002C0000801002008070020080300200803002080
:1002D00053EA020C00F069802DE9F04B4FF0000664
:1002E000002B1FBFB3FA83F503FA05F424FA05F6D1
:1002F0005E4012BF1643B2FA82F502FA05F4C5F168
:1003000020051EBF22FA05FC44EA0C04203556EAFB
:10031000044C4FEA144418BF641C4FF000084FF01F
:100320000009904271EB030C39D3002919BFB1FACF
:1003300081F701FA07F6B0FA80F700FA07F6C7F17D
:1003400020071EBF20FA07FC46EA0C062037B6FB42
:10035000F4FCA7EB0507103F07F01F0BCBF12006BD
:100360002CFA06F60CFA0BFB44BFB3460026202FEE
:10037000A4BF5E464FF0000B5BEA060C08BF4FF0CF
:10038000010B19EB0B0948EB0608ABFB027C06FBE3
:1003900002CC0BFB03CCC01B71EB0C01C1E70B467D
:1003A000024641464846BDE8F08B13B5084318BFE6
:1003B0004FF0FF300146AFF30080BDE81C407047AE
:1003C0004FF0000200B5134694469646203922BFEE
:1003D000A0E80C50A0E80C50B1F12001BFF4F7AF39
:1003E000090728BFA0E80C5048BF0CC05DF804EB1B
:1003F000890028BF40F8042B08BF704748BF20F889
:10040000022B11F0804F18BF00F8012B7047704786
:1004100070477047754600F02BF8AE4605006946F8
:10042000534620F00700854618B020B5FFF73EFF81
:10043000BDE820404FF000064FF000074FF00008E5
:100440004FF0000BAC46ACE8C009ACE8C009ACE822
:10045000C009ACE8C00921F007018D46704710B50E
:100460000446AFF300802046BDE81040FFF709BF07
:10047000004870471000002001491820ABBEFEE77D
:100480002600020070470000FEE700000246002838
:1004900040F20000C4F202004FF0080118BF012230
:1004A00000F0DCBB10B586B000200590CDE903005C
:1004B000CDE90100009043F63000C4F2020001686B
:1004C000002441F0010101600068C4F2020400F060
:1004D000010000900098082001900120029001A9DD
:1004E000204600F0E5FA20460821002200F0B6FB85
:1004F00006B010BD70470000F0B581B00022009238
:1005000090F83C20012A03D1022001B0F0BD00BFC9
:100510000F6801231FFA87FC80F83C304FEA4C0338
:1005200007EB470213FA87F31024092F88BFA3F1C2
:100530001E0288BF0C2403684FF0070E1E590EFAE6
:1005400002F5AE431E518E681D5906FA02F22A4387
:100550001A514968062907D801EB81014A1F19463B
:1005600051F8345F0FE000BF0C2901EB810105D881
:10057000A1F12302194651F8305F04E0A1F14102D4
:10058000194651F82C5F1F26964025EA06060E6094
:100590000CFA02FE42F2043C0A68C4F2010CACF50B
:1005A000417642EA0E02B3420A6005D0002180F88B
:1005B0003C10002001B0F0BD1221112FC1F200014A
:1005C00018BF8F423AD1DCF800208F4222F480021B
:1005D000CCF80020DCF8002042F40002CCF8002027
:1005E000E4D140F20801C2F2000109684DF68362CD
:1005F000C4F21B32A1FB0212910C01EB81014900F4
:10060000009100990029D1D00099013900910099F9
:100610000029CBD000990139009100990029C5D05B
:1006200000990139009100990029BFD00099013942
:10063000009100990029E7D1B8E700BF122FB5D18A
:10064000DCF8001021F40001CCF80010DCF80010F8
:1006500041F48001CCF80010A8E700000068C06CED
:1006600070470000002804BF0120704710B5016CDE
:1006700000293DD0016CC90645D4016C41F202123B
:100680009143023142F204320164C4F20102116862
:1006900021F440311160136890E812102343D0F820
:1006A00010E013604A68012422F480724A604A68AC
:1006B000C0F6007442EA0E224A604A6822F0407294
:1006C0004A604A6842EA0C024A608A6822F4006280
:1006D0008A60C2688B681A438A60826A8B68A24209
:1006E00023F070638B608B6810D123F0405216E0CA
:1006F000044600F065F820460021616484F83C104F
:10070000016CC906B9D5012153E000BF1A438A60C4
:100710008A6822F040528A60C26A8B681A438A60F3
:100720008A6822F002028A608A68037E90F820407C
:1007300042EA43028A604A6884B142F400624A6035
:100740004A684EF2000322F460424A60426ACFF6E1
:10075000FF734C6803EB4232224301E022F4006253
:100760004A60CA6A40F2000C22F47002CA62C3698D
:100770004269CFF6F07CCC6A0CEB03532343CB6287
:100780008B6823F400738B6090F830308C6844EAF7
:1007900043238B608B6823F480638B608B6843EA10
:1007A00082228A6000214164026C012363F301020A
:1007B0000264002280F83C20BDE8104008467047E3
:1007C00080B586B042F200010068C4F20101002247
:1007D00088420592CDE903220292019202D006B02E
:1007E00080BD00BF43F630000092C4F202004369AE
:1007F00043F480734361436903F480730093009B67
:100800000092036843F001030360006800F00100F8
:1008100000900098102001900320CDE9020201F51C
:10082000604001A900F044F906B080BD70B50446EF
:1008300000680D468268520544BF80685FEAC05078
:1008400038D400F011FA21680A68920749D40646A4
:10085000681C3CD0DDB90868800721D5086880078E
:100860003FD4086880071BD50868800739D408681A
:10087000800715D50868800733D4086880070FD52E
:1008800008688007E7D52CE00868800729D400F0C5
:10089000EBF9801B2168A842F6D908688007F3D4D9
:1008A000206C40F004002064002084F83C00032009
:1008B00070BD00BF206C40F020002064002084F850
:1008C0003C00012070BD00BF0868800709D408689B
:1008D000800706D4086880075CBF08685FEA8070FC
:1008E000F2D56FF012000860206C40F400702064B4
:1008F000886810F0405F01D0002070BD207E002885
:10090000FAD1C86A10F4700F02D088684005F3D499
:10091000206C20F480702064206CC004ECD4206C27
:1009200040F001002064002070BD000010B581B0CF
:100930000021009190F83C10012903D1022001B060
:1009400010BD00BF0468012180F83C10214651F819
:10095000083FDB0729D10B684DF6836243F00103A2
:100960000B6040F20803C2F200031B68C4F21B32A2
:10097000A3FB02239A0C02EB42020092009AA2B15E
:10098000009A013A0092009A7AB1009A013A0092D4
:10099000009A52B1009A013A0092009A2AB1009A44
:1009A000013A0092009A002AEAD10A68036CD20741
:1009B0000CD143F01001016400F1440101200A68E8
:1009C00010430860002001B010BD00BF40F201726A
:1009D00023EA020202F5807202646268520504D5BD
:1009E000026C012363F30D320264026C4FF0000EBF
:1009F0000023D20444BF426C22F0060342F2043CBE
:100A0000436480F83CE06FF02200C4F2010C2060E7
:100A1000DCF80000C0060DD0ACF5417084422BD14B
:100A20004FF60450CFF6FF705CF8000010F0405F06
:100A300022D125E042F20000C4F20100844217D026
:100A400042F20020C4F2010084420DD042F20010B4
:100A5000C4F2010084420FD1DCF80000C00607D0C8
:100A6000ACF58270844207D1DCF80000C00603D4E4
:100A7000086810F0405F03D0002001B010BD00BF37
:100A80004FF080409BE70000B0B5044600F0ECF862
:100A9000054640F20000C2F200000078611C18BF59
:100AA000044400BF00F0E0F8401BA042FAD3B0BD00
:100AB0002DE9F04F83B000F1200200F13E4741F6EE
:100AC0000005009207F1FF77C4F2020507224FEA02
:100AD000B726A84208BF062200254FF000084FF0B5
:100AE0000009062E38BF4FEAB72201920AE000BF84
:100AF00009F1010908F10208B9F1100F05F1040527
:100B000000F0A2800F68012202FA09FE17EA0E0A1D
:100B1000EED0D1F804C003220CF003077E1E02FAC7
:100B200008F4012E6FEA040B12D88468CE6804EA38
:100B30000B0406FA08F634438460446824EA0E067F
:100B4000CCF3001404FA09F42643466004E000BF25
:100B5000032F01D103271EE0C6688C6806EA0B0646
:100B600004FA08F42643022FC66014D16FF0030282
:100B7000009E02EA590756F807C005F01C040F2230
:100B80000B69A2402CEA0202A3401A43F251D1F8A9
:100B900004C00CF00307026807FA08F302EA0B022C
:100BA0001A431CF4403F0260A2D0002243F64403E3
:100BB0000292C4F202031A6843F6004442F48042EF
:100BC0001A601A68C4F2010402F480420292029A86
:100BD00029F003024FF6084C2244CFF6FF7C52F86E
:100BE0000C3005F00C070F26BE40B343019E06FAF9
:100BF00007F73B4342F80C30A2684B6842EA0A0709
:100C000043F60C4CDE0258BF22EA0A07A760C4F282
:100C1000010CDCF800209E0242EA0A0758BF22EAD3
:100C20000A07CCF8007062689E0342EA0A0758BFC0
:100C300022EA0A0767602268DB0342EA0A0758BF14
:100C400022EA0A07276053E703B0BDE8F08F0000EF
:100C50000069084018BF012070470000002A08BF43
:100C6000090481617047000040F20010C2F20000E8
:100C70000068704740F2000040F20011C2F200002C
:100C8000C2F2000100780A68104408607047000052
:100C900080B543F60040C4F20200016841F40071DF
:100CA0000160016841F480610160016841F4807174
:100CB0000160032000F074F8002000F005F800F057
:100CC00027F8002080BD000070B540F20006C2F297
:100CD000000640F208013278C2F200014FF47A7344
:100CE0000968B3FBF2F20446B1FBF2F1084600F0EA
:100CF00081FB0F2C4FF0010508D838B94FF0FF30B9
:100D000021460022002500F01FF87460284670BDBF
:100D100082B0002043F640010190C4F202014A680B
:100D200042F480424A604A6802F480420192019A89
:100D30000090086840F080500860086800F080501B
:100D40000090009802B0704710B54EF60C5CCEF2E1
:100D5000000CDCF80030C3F3022E8EF00704042CE4
:100D600028BF0424BEF103034FF0FF3E0EFA04F443
:100D700038BF0023A14399400EFA03F39A4311436D
:100D800000F00F0200F160430901043A03F56443E7
:100D90006244002848BF02F10C03197010BD000026
:100DA0004EF60C51CEF200010A684FF6FF031A40CE
:100DB00060F30A2242F0806040F0FD7008607047E6
:100DC000002804BF012070472DE9F04143F60808D0
:100DD000C4F202080446D8F8F8030D4600F00F00EC
:100DE000814207D988F8F853D8F8F80300F00F00CB
:100DF000A84277D12068810717D5410705D5D8F8D3
:100E0000001041F4E051C8F80010010705D5D8F8EA
:100E1000001041F46041C8F80010D8F80010A26832
:100E200021F0F0011143C8F80010C00740D1D8F8F4
:100E3000F80300F00F00854207D288F8F853D8F87D
:100E4000F80300F00F00A8424CD12068410707D5F5
:100E5000D8F80010E26821F4E0511143C8F80010FE
:100E6000000708D5D8F80000216920F4604040EA66
:100E7000C100C8F8000000F07DF8D8F8001041F675
:100E8000A222C1F30311C0F60002515C40F2080235
:100E900020FA01F140F20400C2F200000068C2F240
:100EA00000021160FFF710FF0020BDE8F08100BFD5
:100EB0006068811E022907D258F8081C89015CBFAE
:100EC0000120BDE8F08111E0012807D158F8081C85
:100ED00089035CBF0120BDE8F08107E058F8081CD9
:100EE000890703D40120BDE8F08100BFD8F80010C5
:100EF00021F003010843C8F80000FFF7B5FE0646DD
:100F000041F28837D8F80000616800F00C00B0EBBF
:100F1000810F8CD0FFF7A8FE801BB842F2D90320C6
:100F2000BDE8F08140F2080043F60801C2F200007B
:100F3000C4F202010068096841F6B222C1F38221BD
:100F4000C0F60002515CC8407047000040F2080043
:100F500043F60801C2F20000C4F202010068096809
:100F600041F6B222C1F34231C0F60002515CC840E2
:100F70007047000010B543F60404C4F20204606830
:100F8000C0F3810142F20040C0F2F400DFE801F05A
:100F90004202081841F20020C0F27A0010BD00BFE2
:100FA000216801F03F02216823684902C3F38811D8
:100FB00016D4A1FB00010023FFF78AF917E000BF58
:100FC000216801F03F02216823684902C3F38811B8
:100FD00014D4A1FB00010023FFF77AF915E000BF4C
:100FE00041F20020C0F27A004843B0FBF2F02168E1
:100FF0000222C1F3014102EB410109E041F200206C
:10100000C0F27A004843B0FBF2F02168C1F30271EC
:10101000B0FBF1F010BD0000002804BF01207047B4
:101020002DE9F04182B00446007843F60006C0077F
:10103000C4F202060CD0B06800F00C00042840F0A6
:1010400089803068800303D56068002800F05081F3
:101050002078800723D5B06810F00C0F11D0B0684D
:1010600000F00C00082802D17068400209D5B06871
:1010700000F00C000C2840F09F807068400200F1E6
:101080009B803068800703D5E068012840F03081FC
:101090003068216920F0F80040EAC1003060207813
:1010A000000713D4207840072AD4A569002D00F04A
:1010B0001A81B06800F00C00082840F0AB80012DC8
:1010C00040F0E880012002B0BDE8F08160690028AE
:1010D00040F20000C4F2472000F088800121C0F8EF
:1010E000801EFFF7C1FD0546706F8007DAD4FFF759
:1010F000BBFD401B0228F7D9032002B0BDE8F081F8
:10110000306C5FEAC0080AD400200190306C40F0D7
:1011100080503064306C00F080500190019847F2AC
:101120000007C4F200073868C00537D4386840F4B7
:1011300080703860FFF798FD054600BF3868C0052D
:101140002CD4FFF791FD401B0228F7D9032002B0F1
:10115000BDE8F081B06800F00C00082803D1706889
:1011600040023FF56EAFB06800F00C000C2803D1D0
:10117000706840023FF565AF61683068B1F5803F47
:1011800007D0B1F5A02F40F0CB8040F48020306034
:10119000306840F480303060CBE000BFA168306F31
:1011A000012905D0052957D140F004003067306F80
:1011B00040F00100306759E0E068002800F09C80B2
:1011C0000020C4F2472001210160FFF74DFD0546D4
:1011D000306880073FF55CAFFFF746FD401B0228F3
:1011E0004FF00300F4D902B0BDE8F0810021C0F84F
:1011F000801EFFF739FD0546706F80077FF552AFFF
:10120000FFF732FD401B0228F6D9032002B0BDE8EB
:10121000F08100BF0027C4F2472700203866FFF79F
:1012200023FD022D05460BD13068800140F19280EC
:10123000FFF71AFD401B02284FF00300F4D9D2E754
:10124000306880014FD5FFF70FFD401B02284FF09B
:101250000300F5D9C7E700BF20F001003067306F09
:10126000002920F00400306700F09880FFF7FCFCB4
:10127000054641F2883700BF306F800700F1A0803B
:10128000FFF7F2FC401BB842F6D9032002B0BDE8DC
:10129000F08100BF7068E16900F480028A4227D1C2
:1012A000216A00F03F028A4222D147F6C071626A89
:1012B0000140B1EB821F1BD1A16A4FF6FF73C90336
:1012C000994300F44032A1F580318A4210D1E16A9D
:1012D00000F07062B2EB016F0AD1216B00F0E040C8
:1012E000B0EB017F04D1002002B0BDE8F08100BF67
:1012F000012002B0BDE8F0810020C4F247200021A7
:101300000160FFF7B1FC0546306880077FF5C7AE86
:10131000FFF7AAFC401B02284FF00300F4D962E754
:1013200020F4803030603068002920F48020306064
:1013300050D0FFF799FC0546306880033FF588AE32
:10134000FFF792FC401B6428F6D9032002B0BDE8E9
:10135000F08100BF04F11C052FCD246B084340EA47
:101360008210D9034FF6FF729143A1F5803140EA14
:101370000560084340EA0470706001203866FFF79A
:1013800073FC044630688001ADD4FFF76DFC001B90
:1013900002284FF00300F5D925E700BFFFF764FCF2
:1013A000054641F2883700BF306F800708D5FFF748
:1013B0005BFC401BB8424FF00300F5D913E700BFB8
:1013C000B8F1000F3FF571AE306C20F08050306402
:1013D0006BE600BFFFF748FC054600BF306880039E
:1013E0007FF536AEFFF740FC401B64284FF003004A
:1013F000F4D9F8E6411E0020B0EB116F1CBF0120AC
:1014000070474EF21002CEF2000251604EF62351A8
:10141000CEF20001F0230B7007219060116070473D
:10142000002804BF0120704710B5044690F8410021
:1014300028B9002084F84000204600F021F824203C
:1014400084F841002068C16821F40051C160204641
:1014500000F044F92068016921F49041016141697B
:1014600021F02A014161C16841F40051C1600020AE
:101470002021606484F8411084F84210606310BD3C
:1014800080B586B044F200410068C4F20001002239
:1014900088420592CDE903220292019202D006B061
:1014A00080BD00BF43F630000092C4F20200036921
:1014B00043F400330361036903F400330093009B9A
:1014C0000092036843F001030360006800F001002C
:1014D000009000980C2001900220CDE90202032028
:1014E00004900720059001F5DE3001A9FFF7E0FA2E
:1014F00006B080BDFEE70000FEE70000FEE700004A
:101500007047000080B586B000200590CDE903004B
:10151000CDE90100009043F63000C4F202000168FA
:1015200041F001010160006801A900F00100009094
:101530000098012001900020C4F20200FFF7B8FAE1
:1015400006B080BD80B50020C4F202000121FFF783
:101550007FFBB0FA80F0400980BD000080B586B006
:1015600000200590CDE90300CDE90100009043F68D
:101570003000C4F20200016841F00101016000681E
:1015800001A900F0010000900098042001900020C3
:10159000C4F20200FFF78CFA06B080BD80B50020CF
:1015A000C4F202000421FFF753FBB0FA80F04009B7
:1015B00080BD00000246002840F20000C4F2020094
:1015C0004FF0020118BF0122FFF748BB10B586B0EB
:1015D00000200590CDE90300CDE90100009043F61D
:1015E0003000C4F202000168002441F001010160F2
:1015F0000068C4F2020400F001000090009802208C
:1016000001900120029001A92046FFF751FA2046DF
:1016100002210022FFF722FB06B010BD7047000038
:10162000FFF728BB70B594B007AC20463421FEF715
:10163000C7FE002543F640000695CDE90455CDE9E7
:1016400002550195C4F202000168012241F0805167
:1016500001600068022600F080500190019847F276
:1016600000000195C4F20000016862F38F3101604F
:10167000006800F440400190019810200B900F90FA
:101680004FF4A87010900420CDE91106204607966B
:101690000A92CDE90D651396FFF7BEFC10B172B644
:1016A000FEE700BF0F20CDE902064FF48050CDE9E0
:1016B000050502A802210495FFF782FB10B172B65E
:1016C000FEE700BF14B070BD4EF68850CEF20000A9
:1016D000016841F47001016070470000B0B5044634
:1016E000006804F108030ECB0569194325F4405541
:1016F0002A4302616269E3691143C268194349F2EE
:101700000C639A431143C1604169A26921F440719D
:1017100041F20043114340F48062C4F201039A4253
:10172000416103D1FFF712FC02E000BFFFF7FAFBB3
:10173000E1694FF69C7563681922C0F6FF75B1F533
:10174000004FA0FB02011FD15A00DB0FFEF7C0FDC6
:1017500048F21F51C5F2EB11A0FB01235A0905F114
:10176000805302FB0300322303EBC000A0FB010106
:101770004FF4F87000EA111000EB0210C1F34211AF
:10178000084421688860B0BD9A009B0FFEF7A0FD59
:1017900048F21F51C5F2EB11A0FB01235A0902FBCD
:1017A0000500322303EB0010A0FB0101F02000EA4A
:1017B000511000EB0210C1F3431108442168886006
:1017C000B0BD0000FEE700000138B0FA80F0420929
:1017D00040F20040C4F202000221FFF73FBA0000CD
:1017E00086B040F20044C4F20204FFF78BFEFFF71C
:1017F000A9FEFFF7EBFEFF20FFF7DCFEFFF7AEFED2
:10180000FFF7CCFEFEF74EFEFF20FEF73FFE00F096
:1018100011F9FF20FFF7D8FFFFF73AFAFFF702FFB1
:10182000002743F630000597CDE90377CDE901772E
:101830000097C4F202000168002241F00401016037
:1018400001684FF0070901F0040100910099009729
:10185000016841F080010160016801F080010091A0
:1018600000990097016841F001010160016801F0F1
:101870000101009100990097016841F002010160A7
:101880000068072100F00200009000982046FFF752
:10189000E5F94FF4005001904FF404100DF10408E5
:1018A000CDE9020704F580604146FFF701F9A4F590
:1018B0008065012628464146CDE901670397FFF779
:1018C000F7F80220CDE90107284641460396FFF7C5
:1018D000EFF8202001A9C1C1284641460497FFF72F
:1018E000E7F820464146CDE90196CDE90377FFF7B9
:1018F000DFF840F270000123A4F56441C2F2000059
:10190000C0F6007304974FF48032067680F820709A
:10191000C0E90A37C66180F8307080E88600C0E907
:1019200003764661FEF79EFE10B172B6FEE700BF79
:10193000042001A9C1C140F27000C2F2000001A957
:10194000FEF7DAFD10B172B6FEE700BF40F2B80054
:10195000A4F5E031C2F2000000230C274FF4E1327D
:1019600080E80E00C0E90333C0E90573C361FFF7E7
:1019700057FD18B172B600BFFEE700BF9FED2B9A6E
:101980009FED2BAA18E000BFB4EE498A0020F1EECB
:1019900010FAC8BF0120B4EE4A8A0021F1EE10FA15
:1019A000B8BF0121084300F0010220460421FFF7DF
:1019B00055F96420FFF768F828460121FFF748F938
:1019C000074628460221FFF743F9064600F032F8A1
:1019D000012FB0EE408A20464FF001010AD10022CB
:1019E000FFF73CF9204602210122FFF737F9012ECB
:1019F000CAD109E00122FFF731F920460221002275
:101A0000FFF72CF9012EBFD128460121FFF720F95D
:101A10000028B9D1204601210122FFF71FF92046F5
:101A200002210022FFF71AF9AEE700BF004083440D
:101A300000806D4410B540F27004C2F200042046EC
:101A4000FEF774FF20460A21FEF7F0FE10B19FED6D
:101A50000B0A10BD40F27000C2F20000FEF7FEFD5E
:101A600000EE100A9FED061AB8EE400A9FED052A17
:101A700020EE010A20EE020A10BD00BF00000000A7
:101A8000010AA03A00007A44F1EE100A4FF6FF7105
:101A9000C0F2C03120EA010040F04070E1EE100ACF
:101AA0007047000000000000000001020304060768
:101AB000080900000000010203040000E01A000809
:101AC000000000201000000028020008F01A0008A2
:101AD00010000020F8060000480200080000000086
:101AE00001000000100000000024F40000000000CD
:04000005080001C529
:00000001FF
